:020000040800F2
:10000000682E002079030008957100088D6D0008A6
:10001000917100085D0C00088DAC00080000000024
:10002000000000000000000000000000037800084D
:10003000511300080000000007740008177800083A
:100040009303000893030008930300089303000838
:100050009303000893030008531300085D1300087E
:10006000930300089303000867130008D50D0008E8
:100070009303000893030008930300089303000808
:1000800093030008930300089303000893030008F8
:1000900093030008930300089303000871130008FA
:1000A00093030008930300089303000893030008D8
:1000B000F9790008930300089303000893030008EC
:1000C00093030008930300089303000893030008B8
:1000D00093030008930300089303000893030008A8
:1000E0009303000893030008000000009303000836
:1000F0009303000893030008930300089303000888
:100100009303000893030008930300089303000877
:100110009303000893030008930300089303000867
:100120009303000893030008930300089303000857
:100130009303000893030008930300089303000847
:1001400000000000000000000000000000000000AF
:100150009303000893030008930300089303000827
:100160009303000893030008930300089303000817
:100170009303000893030008930300089303000807
:1001800093030008930300089303000893030008F7
:1001900093030008930300089303000893030008E7
:1001A00093030008930300089303000893030008D7
:1001B00093030008930300089303000893030008C7
:1001C00093030008930300089303000893030008B7
:1001D0009303000899710008930300089303000833
:1001E0009303000893030008930300089303000897
:1001F0009303000893030008930300089303000887
:100200009303000893030008930300089303000876
:100210009303000893030008930300089303000866
:1002200093030008930300089303000800000000F4
:1002300093030008930300080000000093030008E4
:100240009303000893030008930300089303000836
:100250009303000893030008930300089303000826
:100260009303000893030008930300089303000816
:1002700093030008930300089303000800000000A4
:100280009303000893030008930300080000000094
:10029000000000009303000800F002F800F05CF892
:1002A0000AA090E8000C82448344AAF10107DA45D1
:1002B00001D100F051F8AFF2090EBAE80F0013F0C7
:1002C000010F18BFFB1A43F0010318472CB90000B7
:1002D0004CB900000A444FF0000C10F8013B13F039
:1002E000070408BF10F8014B1D1108BF10F8015B8F
:1002F000641E05D010F8016B641E01F8016BF9D182
:1003000013F0080F1EBF10F8014BAD1C0C1B09D1D8
:100310006D1E58BF01F801CBFAD505E014F8016B4A
:1003200001F8016B6D1EF9D59142D6D370470000DC
:100330000023002400250026103A28BF78C1FBD8EE
:10034000520728BF30C148BF0B6070471FB50BF084
:100350009DFB1FBD10B510BD00F0A8F91146FFF7B9
:10036000F5FF0BF05BF900F0C6F903B4FFF7F2FFFD
:1003700003BC00F0C9F9000009488047094800475C
:10038000FEE7FEE7FEE7FEE7FEE7FEE7FEE7FEE745
:10039000FEE7FEE704480549054A064B70470000A2
:1003A000FD7800089902000868280020682E0020C7
:1003B000682A0020682A002053EA020C00F06980B5
:1003C0002DE9F04B4FF00006002B1FBFB3FA83F569
:1003D00003FA05F424FA05F65E4012BF1643B2FA9A
:1003E00082F502FA05F4C5F120051EBF22FA05FCCC
:1003F00044EA0C04203556EA044C4FEA144418BF72
:10040000641C4FF000084FF00009904271EB030CA0
:1004100039D3002919BFB1FA81F701FA07F6B0FA0A
:1004200080F700FA07F6C7F120071EBF20FA07FC85
:1004300046EA0C062037B6FBF4FCA7EB0507103F95
:1004400007F01F0BCBF120060CFA0BFB2CFA06F67B
:1004500044BFB3460026202FA4BF5E464FF0000BDA
:100460005BEA060C08BF4FF0010B19EB0B09ABFB65
:10047000027C48EB0608C01B06FB02CC0BFB03CC3E
:1004800071EB0C01C1E70B46024641464846BDE808
:10049000F08B13B54FF000004FF00001AFF3008078
:1004A000BDE81C40704740EA010310B59B070FD11F
:1004B000042A0DD310C808C9121F9C42F8D020BAD4
:1004C00019BA884201D9012010BD4FF0FF3010BD8C
:1004D0001AB1D30703D0521C07E0002010BD10F85A
:1004E000013B11F8014B1B1B07D110F8013B11F820
:1004F000014B1B1B01D1921EF1D1184610BD032ADE
:1005000040F2308010F0030C00F0158011F8013B30
:10051000BCF1020F624498BF11F801CB00F8013B17
:1005200038BF11F8013BA2F1040298BF00F801CBDB
:1005300038BF00F8013B11F0030300F02580083AB2
:10054000C0F0088051F8043B083A51F804CBA0E809
:100550000810F5E7121D5CBF51F8043B40F8043B5E
:10056000AFF30080D20724BF11F8013B11F801CB93
:1005700048BF11F8012B24BF00F8013B00F801CB64
:1005800048BF00F8012B704710B5203AC0F00B802F
:10059000B1E81850203AA0E81850B1E81850A0E887
:1005A0001850BFF4F5AF5FEA027C24BFB1E81850E1
:1005B000A0E8185044BF18C918C0BDE810405FEA51
:1005C000827C24BF51F8043B40F8043B08BF7047CD
:1005D000D20728BF31F8023B48BF11F8012B28BFD2
:1005E00020F8023B48BF00F8012B70474FF0000293
:1005F0000429C0F0128010F0030C00F01B80CCF135
:10060000040CBCF1020F18BF00F8012BA8BF20F8A2
:10061000022BA1EB0C0100F00DB85FEAC17C24BFF6
:1006200000F8012B00F8012B48BF00F8012B7047A0
:100630004FF0000200B5134694469646203922BF7B
:10064000A0E80C50A0E80C50B1F12001BFF4F7AFC6
:10065000090728BFA0E80C5048BF0CC05DF804EBA8
:10066000890028BF40F8042B08BF704748BF20F816
:10067000022B11F0804F18BF00F8012B7047704714
:100680007047704710B500F009F8006810BD10B54C
:10069000044600F003F8046010BD000000487047F5
:1006A0000828002000487047082800207546FFF7FA
:1006B000F9FFAE4605006946534620F0070085461F
:1006C00018B020B5FFF766FEBDE820404FF00006E9
:1006D0004FF000074FF000084FF0000B21F007012A
:1006E000AC46ACE8C009ACE8C009ACE8C009ACE86D
:1006F000C0098D46704710B50446AFF30080204610
:10070000BDE81040FFF731BE01491820ABBEFEE73F
:1007100026000200704710B50446012C06D0022CBA
:100720007BD0032C77D0042C76D118E10221042051
:1007300000F004FA0A2002F04DFAFF210D2000F02B
:10074000FDF90A2002F046FAFF210E2000F0F6F92A
:100750000A2002F03FFAFF210F2000F0EFF90A20F3
:1007600002F038FA0021102000F0E8F90A2002F027
:1007700031FA0021112000F0E1F90A2002F02AFAF2
:100780002021152000F0DAF90A2002F023FA602176
:10079000052000F0D3F90A2002F01CFA602106209F
:1007A00000F0CCF90A2002F015FA6021072000F0D1
:1007B000C5F90A2002F00EFA6021082000F0BEF907
:1007C0000A2002F007FA6021092000F0B7F90A2098
:1007D00002F000FA60210A2000F0B0F90A2002F0CD
:1007E000F9F960210B2000F0A9F90A2002F0F2F9D2
:1007F00060210C2000F0A2F90A2002F0EBF900F0D1
:1008000075F9282002F0E6F900F0F6F80D2002F064
:10081000E1F9EFE001E058E0EBE000210D2000F00D
:100820008DF90A2002F0D6F900210E2000F086F999
:100830000A2002F0CFF91021152000F07FF90A20DC
:1008400002F0C8F96021052000F078F90A2002F0D2
:10085000C1F96021062000F071F90A2002F0BAF90E
:100860008121072000F06AF90A2002F0B3F9812102
:10087000082000F063F90A2002F0ACF98121092078
:1008800000F05CF90A2002F0A5F981210A2000F0AD
:1008900055F90A2002F09EF981210B2000F04EF953
:1008A0000A2002F097F981210C2000F047F90A2074
:1008B00002F090F900F01AF9282002F08BF900F00C
:1008C0009BF80D2002F086F994E0C021022000F090
:1008D00035F90A2002F07EF90121052000F02EF9F9
:1008E0000A2002F077F90121062000F027F90A20FA
:1008F00002F070F90121072000F020F90A2002F02F
:1009000069F90121082000F019F90A2002F062F9C2
:100910000121092000F012F90A2002F05BF90121FF
:100920000A2000F00BF90A2002F054F901210B20F3
:1009300000F004F90A2002F04DF901210C2000F02A
:10094000FDF80A2002F046F900F0D0F8282002F065
:1009500041F900F051F80D2002F03CF94AE0D021B5
:10096000022000F0EBF80A2002F034F905210846D5
:1009700000F0E4F80A2002F02DF90521062000F02D
:10098000DDF80A2002F026F90521072000F0D6F84C
:100990000A2002F01FF90521082000F0CFF80A20F4
:1009A00002F018F90521092000F0C8F80A2002F029
:1009B00011F905210A2000F0C1F80A2002F00AF915
:1009C00005210B2000F0BAF80A2002F003F90521F6
:1009D0000C2000F0B3F80A2002F0FCF800F086F8D2
:1009E000282002F0F7F800F007F80D2002F0F2F8E6
:1009F00000E000BF00BF10BD10B500224FF48051D1
:100A0000074802F01BFA102000F014F9012211032C
:100A1000034802F013FA012002F0DCF810BD0000D8
:100A20000004025810B500224FF48051074802F02C
:100A300005FA062000F0FEF8012002F0CBF80122B2
:100A40001103024802F0FAF910BD00000004025838
:100A500070B5044604F12000C5B200224FF4805165
:100A60000A4802F0EBF9284600F0E4F8002000F014
:100A7000E1F8002000F0DEF80549085501221103D5
:100A8000024802F0DBF90248005D70BD0004025824
:100A9000D024002010B500224FF48051074802F006
:100AA000CDF9112000F0C6F801221103034802F02D
:100AB000C5F9012002F08EF810BD000000040258B4
:100AC00010B500224FF48051074802F0B7F9042016
:100AD00000F0B0F8012002F07DF801221103024875
:100AE00002F0ACF910BD00000004025810B500225D
:100AF0004FF48051054802F0A1F9082000F09AF85F
:100B000001221103014802F099F910BD00040258B6
:100B100010B500224FF48051074802F08FF90220EF
:100B200000F088F801221103034802F087F9012040
:100B300002F050F810BD00000004025870B50446E1
:100B40000D4604F14000C6B200224FF480510A481D
:100B500002F074F9304600F06DF8002000F06AF8F9
:100B6000284600F067F801221103034802F066F9F5
:100B70000248055570BD000000040258D024002032
:100B800010B50020FFF764FF0446204610BD0000AA
:100B900070B504460D462548007820B10020234951
:100BA0000870FFF7B5FFA4F1520009283AD2DFE838
:100BB00000F02D192339390F3939050028460AF07C
:100BC000ABFB0120FFF7A7FD172002F0E5F92AE0B3
:100BD00028460AF0A1FB0220FFF79DFD172002F036
:100BE000DBF920E028460AF097FB0320FFF793FD8E
:100BF000172002F0D1F916E028460AF08DFB0420F8
:100C0000FFF789FD172002F0C7F90CE0FFF758FF46
:100C1000172002F09FF906480AF088FC01200349DA
:100C2000087000E000BF00BF70BD0000A4010020FC
:100C3000580600203EB5044601946FF07F40012322
:100C400002AA01A90090044805F096FA08B1FF2015
:100C500002909DF808003EBD0007002000BFFEE79F
:100C60000346042B15D007DC7BB1012B0ED0022BE1
:100C70000DD0032B12D10BE0202B0BD0212B0AD04F
:100C8000222B09D0232B09D107E008E007E006E07A
:100C900005E004E003E002E001E000E000BF00BF87
:100CA000002070470020704710B500220449054815
:100CB00007F029FE0449034807F016FE002010BD86
:100CC00090150020B4080020900D002070B5044657
:100CD0000D462146094807F007FE084807F0D0FDF9
:100CE0000749286808600846214602680548FFF75A
:100CF00006FC012004490870002070BDB4080020E3
:100D0000E4000020901D0020FC00002010B50346E8
:100D10000C460021084610BD2DE9F04104460D4661
:100D2000002702F097F880460C48D0F8BC62D6F84D
:100D3000140210B10120BDE8F0812A46214607487F
:100D400007F0E1FD054807F091FE074600BFD6F821
:100D500014020028FBD13846EDE70000B40800205B
:100D600070B50446A56B284600F00EFC01202871E2
:100D700070BD70B50446A56B284600F01DFB012030
:100D8000287170BD70B50546AC6B206940F0040059
:100D90002061204600F0FAFB0120207170BD70B583
:100DA0000546AC6B206940F004002061204600F04D
:100DB00005FB0120207170BD70B50446A56B284667
:100DC00000F0E3FB70BD70B50446A56B284600F04B
:100DD000F4FA70BD10B5024800F000FD10BD00002F
:100DE000880600200146374A0868904249D0354AB3
:100DF00018320868904244D0324A30320868904233
:100E00003FD0304A4832086890423AD02D4A60328A
:100E10000868904235D02B4A78320868904230D02A
:100E2000284A9032086890422BD0264AA832086897
:100E3000904226D0244A0868904222D0224A183292
:100E4000086890421DD0204A30320868904218D07D
:100E50001D4A48320868904213D01B4A6032086825
:100E600090420ED0184A78320868904209D0164A4B
:100E700090320868904204D0134AA8320868904221
:100E800001D1012000E00020B0B10A78103A182307
:100E9000B2FBF3F000F007020C4B9A5CCA65032822
:100EA00005D90A686FF30902121D8A6503E00A6812
:100EB0006FF309028A6503E0086820F0FF00886587
:100EC000886D7047100002401004024096BA000876
:100ED00010B502682B4C0368A34222D0294C14346D
:100EE0000368A3421DD0274C28340368A34218D0BE
:100EF000244C3C340368A34213D0224C5034036882
:100F0000A3420ED01F4C64340368A34209D01D4C89
:100F100078340368A34204D01A4C8C340368A3428B
:100F200001D1012300E000238BB10378083B142496
:100F3000B3FBF4F1144B03EB81030366124B8033D4
:100F4000436601F01F040123A340836618E0037881
:100F5000103B1824B3FBF4F10C4B9A4204D80B4B12
:100F6000A83B9A4200D30831094B03EB8103036687
:100F7000074B8033436601F01F040123A3408366BF
:100F800010BD00000854025800580258B80402402E
:100F9000000802400179A9B3082940D8204B026813
:100FA0009A4222D01E4B143302689A421DD01C4B29
:100FB000283302689A4218D0194B3C3302689A428F
:100FC00013D0174B503302689A420ED0144B64333F
:100FD00002689A4209D0124B783302689A4204D0D0
:100FE0000F4B8C3302689A4201D1012200E00022AB
:100FF0004AB14A1E0B4B03EB8202C266094A4032D9
:10100000026708E00BE04A1E074B03EB8202C26650
:10101000054A403202674A1E0123934043677047E6
:1010200008540258005902580009024001460020A5
:101030008A69D2B98A6A32B1012A0DD0022A03D054
:10104000032A10D10EE000BFCA6A02F08072B2F12A
:10105000807F00D1012007E0CA6AB2F1C07F00D1D1
:10106000012001E000E000BF36E08A69B2F5005FD0
:101070001BD18A6A32B1012A07D0022A03D0032A7F
:1010800011D10AE000BF01200EE0CA6A02F08072AE
:10109000B2F1807F00D1012006E0CA6AB2F1C07FC0
:1010A00000D1012000E000BF16E08A6A32B1012AB7
:1010B00005D0022A04D0032A0CD103E000BF00BFF0
:1010C000012008E0CA6A02F08072B2F1807F00D18C
:1010D000012000E000BF00BF70470000F0B5856D43
:1010E000846D984F0668BE4270D0964F18370668D8
:1010F000BE426BD0934F30370668BE4266D0914FE8
:1011000048370668BE4261D08E4F60370668BE42DF
:101110005CD08C4F78370668BE4257D0894F9037E5
:101120000668BE4252D0874FA8370668BE424DD0EF
:10113000854F0668BE4249D0834F18370668BE42C5
:1011400044D0814F30370668BE423FD07E4F48378B
:101150000668BE423AD07C4F60370668BE4235D042
:10116000794F78370668BE4230D0774F903706689F
:10117000BE422BD0744FA8370668BE4226D0734FAC
:101180000668BE4222D0714F14370668BE421DD099
:101190006E4F28370668BE4218D06C4F3C37066841
:1011A000BE4213D0694F50370668BE420ED0674F1B
:1011B00064370668BE4209D0644F78370668BE427D
:1011C00004D0624F8C370668BE4201D1012600E090
:1011D00000263EB1D0E919767E60C66E16B1D0E920
:1011E0001C767E60574F0668BE4249D0554F18376F
:1011F0000668BE4244D0534F30370668BE423FD0E7
:10120000504F48370668BE423AD04E4F60370668A6
:10121000BE4235D04B4F78370668BE4230D0494F7A
:1012200090370668BE422BD0464FA8370668BE42AC
:1012300026D0454F0668BE4222D0434F1837066875
:10124000BE421DD0404F30370668BE4218D03E4FD8
:1012500048370668BE4213D03B4F60370668BE422F
:101260000ED0394F78370668BE4209D0364F9037D6
:101270000668BE4204D0344FA8370668BE4201D18A
:10128000012600E00026DEB190F85C6006F01F0742
:101290003F26BE40AE600668366826F480260768A2
:1012A0003E60066873608668402E04D10668B260AE
:1012B0000668F16044E00668B1600668F2603FE0ED
:1012C000224F0668BE4222D0204F14370668BE4225
:1012D0001DD01E4F28370668BE4218D01B4F3C3722
:1012E0000668BE4213D0194F50370668BE420ED072
:1012F000164F64370668BE4209D0144F7837066827
:10130000BE4204D0114F8C370668BE4201D101267F
:1013100000E00026A6B190F85C6006F01F070126E9
:10132000BE406660066873608668402E04D1066819
:10133000B2600668F16003E00668B1600668F260BA
:10134000F0BD000010000240100402400854025892
:10135000704710B5012001F065FC10BD10B50220EA
:1013600001F060FC10BD10B5102001F05BFC10BD59
:1013700010B54FF4807001F055FC10BD72B600BF7F
:10138000FEE7000070B50A480468001D0568001DEE
:101390000668344454B108220649204605F0F8FC9A
:1013A000042204491031284605F0F2FC70BD00000B
:1013B00000E8F11FCA000020704770477047000026
:1013C0002DE9F04704460D4616462869012800D14C
:1013D00000BF2868042800D100BF00BF6079012841
:1013E00002D10220BDE8F0870120607100BF022019
:1013F0002071286804285FD101F02CFD8146FEB9D8
:1014000011E001F027FDA0EB090001280BD92068AD
:10141000406B5C49084030B1206940F00800206111
:1014200003202071DEE72068406B56490840002801
:10143000E7D1012001F0CEFBA869216808641EE015
:1014400011E001F007FDA0EB090001280BD920688D
:10145000406B00F0004030B1206940F0080020618E
:1014600003202071BEE72068406B00F00040002898
:10147000E7D1012001F0AEFBA8692168486420682B
:10148000806C06F0100240F2FF319140884306F074
:101490001002E96991400843216888642068C06CA3
:1014A00006F01002FF219140884306F01002296ADD
:1014B000914008432168C864286901280FD1206839
:1014C000876B06F010011F2088408743D5F814A0D1
:1014D00006F010000AFA00F00743206887632068CE
:1014E000C76B06F01001072088408743E868012891
:1014F00002D14FF000080CE0E868022802D14FF05A
:10150000010806E0A86810B94FF0010801E04FF0AB
:101510000008A9682868084340EA080A06F0100194
:101520000AFA01F007432068C7632068006806F0E4
:1015300010024FF480419140884321680860206880
:10154000076806F0100140F6FE7088408743D5F822
:1015500004A006F010010AFA01F0074320680760B2
:101560002068006806F01002C0219140884321687D
:1015700008600120207100BF0020607100BF00BF23
:1015800030E700000080002070477047704710B5BA
:1015900004460CB9012010BD207920B900206071EB
:1015A000204600F009F8022020710020206101206F
:1015B00020710020EFE7000010B586B0044614212A
:1015C00001A8FFF735F827492068884247D100BFB6
:1015D0002548006840F0005023490860084600682C
:1015E00000F00050009000BF00BF00BF1E48083848
:1015F000006840F001001C4908390860084600688E
:1016000000F00100009000BF00BF102001900320F7
:1016100002900020039001A9144801F011FB144826
:10162000144908604320486040211248816000212D
:10163000C1604FF4806101614900416189008161AD
:101640004911C16100210162416200F043FE08B10D
:10165000FFF794FE00BF0748A060846300BF06B098
:1016600010BD000000740040E84402580000025819
:1016700010000240880600202DE9F04704460D4680
:1016800017469946DDF820804FF0000A00BF6079C8
:10169000012802D10220BDE8F0870120607100BF5F
:1016A0000220207135BB3F48A168C8633E48A1684D
:1016B00008643E48A168C8642068006840F480500F
:1016C00021680860B8F1000F06D0B8F1040F07D008
:1016D000B8F1080F0CD107E0206800F1080A08E013
:1016E000206800F10C0A04E0206800F1100A00E014
:1016F00000BF26E02E48E168C8632E48E168086410
:101700002D48E168C8642068006840F08050216876
:101710000860B8F1000F06D0B8F1040F07D0B8F197
:10172000080F0CD107E0206800F1140A08E02068D7
:1017300000F1180A04E0206800F11C0A00E000BF74
:1017400000BF6DB92068006840F40050216808604F
:101750004B4652463946A06801F04CF806460CE06C
:101760002068006840F00050216808604B465246EF
:101770003946E06801F03EF8064600BF002060717F
:1017800000BF4EB92068006805F0100201219140A9
:1017900008432168086003E0206940F004002061EC
:1017A000304678E7610D0008B90D0008850D000886
:1017B000730D0008C70D00089F0D000810B5024604
:1017C0001068006801F010040123A34098431368D7
:1017D000186001201071002010BD00002DE9F84FA5
:1017E000044600200090FE4800684FF41651B0FBFC
:1017F000F1FAA66DD4F858803768D8F80090F94906
:101800002068884249D0F74918312068884244D07E
:10181000F4493031206888423FD0F249483120688D
:1018200088423AD0EF4960312068884235D0ED498E
:1018300078312068884230D0EA4990312068884267
:101840002BD0E849A8312068884226D0E649206894
:10185000884222D0E4491831206888421DD0E249EC
:1018600030312068884218D0DF49483120688842EA
:1018700013D0DD496031206888420ED0DA497831D2
:101880002068884209D0D84990312068884204D025
:10189000D549A8312068884201D1012000E000200C
:1018A00000287DD094F85C0000F01F0108208840DB
:1018B0003840002868D0CB492068884249D0C949BF
:1018C00018312068884244D0C649303120688842A7
:1018D0003FD0C4494831206888423AD0C14960317C
:1018E0002068884235D0BF4978312068884230D09E
:1018F000BC499031206888422BD0BA49A831206871
:10190000884226D0B8492068884222D0B64918318A
:10191000206888421DD0B44930312068884218D0F0
:10192000B14948312068884213D0AF4960312068FE
:1019300088420ED0AC4978312068884209D0AA4943
:1019400090312068884204D0A749A8312068884295
:1019500004D12068006800F0040003E020680068FB
:1019600000F0080080B12068006820F004002168C1
:10197000086094F85C0000F01F0108208840B06007
:10198000606D40F00100606594F85C0000F01F019C
:10199000012088403840E8B392492068884200E03E
:1019A000B7E24BD08F4918312068884246D08D4924
:1019B00030312068884241D08A49483120688842C5
:1019C0003CD0884960312068884237D085497831D9
:1019D0002068884232D083499031206888422DD0D7
:1019E0008049A8312068884228D07F4920688842F1
:1019F00024D07D491831206888421FD07A4930317F
:101A0000206888421AD0784948312068884215D029
:101A1000754900E026E06031206888420ED07249A6
:101A200078312068884209D06F4990312068884217
:101A300004D06D49A8312068884204D120684069EB
:101A400000F0800002E020680068002050B194F8A7
:101A50005C0000F01F0101208840B060606D40F024
:101A60000200606594F85C0000F01F0104208840CB
:101A70003840E8B35B49206888424BD05949183157
:101A80002068884246D0574930312068884241D08A
:101A900054494831206888423CD05249603120681E
:101AA000884237D04F4978312068884232D04D493A
:101AB0009031206888422DD04A49A8312068884258
:101AC00028D049492068884224D0474918312068E5
:101AD00088421FD044493031206888421AD0424998
:101AE00048312068884215D03F496031206800E0C5
:101AF00024E088420ED03C4978312068884209D0E1
:101B0000394990312068884204D03749A83120688B
:101B1000884204D12068006800F0020002E02068DA
:101B20000068002050B194F85C0000F01F01042010
:101B30008840B060606D40F00400606594F85C001F
:101B400000F01F01102088403840E8B32549206884
:101B5000884251D023491831206888424CD021490D
:101B600030312068884247D01E4948312068884279
:101B700042D01C496031206888423DD019497831F3
:101B80002068884238D0174990312068884233D085
:101B90001449A831206888422ED013492068884211
:101BA0002AD0114918312068884225D00E49303199
:101BB0002068884220D00C494831206888421BD0D8
:101BC00009496031206800E04DE0884214D00649A0
:101BD0007831206888420FD003499031206805E0B1
:101BE0000C0100201000024010040240884203D083
:101BF000FE492068884204D12068006800F008008F
:101C000003E02068006800F0040060B394F85C0012
:101C100000F01F0110208840B0602068006800F4C8
:101C2000802080B12068006800F4002028B9206C72
:101C3000C8B12046216C884715E0A06C98B12046B9
:101C4000A16C88470FE02068006800F4807028B914
:101C50002068006820F0080021680860206C10B13E
:101C60002046216C884794F85C0000F01F0120207A
:101C70008840384000287DD0DD492068884249D01E
:101C8000DB4918312068884244D0D9493031206876
:101C900088423FD0D6494831206888423AD0D4495A
:101CA00060312068884235D0D14978312068884237
:101CB00030D0CF499031206888422BD0CC49A83110
:101CC0002068884226D0C949A8392068884221D096
:101CD000C6499039206888421CD0C44978392068A8
:101CE000884217D0C14960392068884212D0BF4964
:101CF0004839206888420DD0BC4930392068884274
:101D000008D0BA4918392068884203D0B7492068FA
:101D1000884204D12068006800F0100003E02068C9
:101D2000006800F0020028B394F85C0000F01F0186
:101D300020208840B06094F8350004282DD1206818
:101D4000006820F01600216808602068406920F0D3
:101D5000800021684861206C08B9A06C28B1206817
:101D6000006820F008002168086094F85C0000F02A
:101D70001F0100E03FE03F208840B060012084F870
:101D8000350000BF002084F8340000BF206D10B182
:101D90002046216D8847BDE8F88F2068006800F470
:101DA000802080B12068006800F4002028B9606CB1
:101DB00008B32046616C88471DE0E06BD8B120462F
:101DC000E16B884717E02068006800F4807068B90C
:101DD0002068006820F0100021680860012084F865
:101DE000350000BF002084F8340000BFE06B10B164
:101DF0002046E16B8847606D00287AD0606D00F066
:101E00000100E8B3042084F835007949206888424D
:101E10004BD0774918312068884246D07449303118
:101E20002068884241D072494831206888423CD0BD
:101E30006F4960312068884237D06D497831206819
:101E4000884232D06A499031206888422DD0684952
:101E5000A8312068884228D06449A839206888427F
:101E600023D062499039206888421ED05F49783972
:101E70002068884219D05D4960392068884200E0B6
:101E800040E012D059494839206888420DD057495E
:101E900030392068884208D054491839206888426F
:101EA00003D052492068884206D12068006820F09B
:101EB00001002168086005E02068006820F001004A
:101EC0002168086000BF0098401C0090504500D970
:101ED00005E02068006800F001000028F3D100BF91
:101EE0002068006800F0010020B1032084F835006C
:101EF00003E00DE0012084F8350000BF002084F8E5
:101F0000340000BFE06C002802D02046E16C884716
:101F1000D9E138492068884222D0364914312068F6
:101F200088421DD0334928312068884218D0314971
:101F30003C312068884213D02E49503120688842B5
:101F40000ED02C4964312068884209D02949783163
:101F50002068884204D027498C312068884201D10A
:101F6000012000E000200028D2D02068056894F805
:101F70005C0000F01F010420884000EA0900D8B38B
:101F800005F00400C0B394F85C0000F01F010420C9
:101F90008840C8F8040005F4004080B105F48030A2
:101FA00030B9A06C0028B3D02046A16C88478AE1E4
:101FB000206C0028ACD02046216C884783E105F0D6
:101FC0002000E8BB0A492068884253D008491831EC
:101FD000206888424ED0064930312068884249D076
:101FE000034948312068884244D006E0B8040240E2
:101FF00010000240085402584FE0B4496031206894
:10200000884237D0B14978312068884232D0AF4910
:102010009031206888422DD0AC49A8312068884290
:1020200028D0AB492068884224D0A94918312068BB
:1020300088421FD0A6493031206888421AD000E07B
:1020400025E0A34948312068884213D0A049603177
:10205000206888420ED09E4978312068884209D095
:102060009B4990312068884204D09949A831206862
:10207000884206D12068006820F0080021680860C6
:1020800005E02068006820F0040021680860206CEA
:1020900010B32046216C884715E194F85C0000F0ED
:1020A0001F010220884000EA0900E8B305F00200A1
:1020B000D0B394F85C0000F01F0102208840C8F8FB
:1020C000040005F4004070B105F4803028B9606C5C
:1020D00010B12046616C8847F5E0E06BF0B3204614
:1020E000E16B8847EFE005F02000C0BB774920682E
:1020F00088424ED0754918312068884249D07349CA
:1021000030312068884244D0704948312068884284
:102110003FD06E496031206888423AD06B497831AF
:102120002068884235D000E04EE068499031206850
:1021300088422ED06549A8312068884229D0644958
:102140002068884225D0624918312068884220D012
:102150005F493031206888421BD001E06EE02DE0FD
:102160005B4948312068884213D059496031206862
:1021700088420ED0564978312068884209D05449A7
:1021800090312068884204D05149A83120688842A3
:1021900006D12068006820F014002168086005E07E
:1021A0002068006820F00A0021680860012084F897
:1021B000350000BF002084F8340000BFE06BE8B3B6
:1021C0002046E16B88477EE094F85C0000F01F0138
:1021D0000820884000EA090080B305F0080068B3D1
:1021E0003A49206888424BD03849183120688842E3
:1021F00046D0364930312068884241D03349483191
:10220000206888423CD0314960312068884237D00C
:102210002E4978312068884232D02C49903120688C
:1022200088422DD02949A8312068884228D02849E1
:102230002068884224D02649183100E043E0206815
:1022400088421DD0224930312068884218D0204968
:1022500048312068884213D01D4960312068884287
:102260000ED01B4978312068884209D01849903136
:102270002068884204D01649A8312068884206D1D7
:102280002068006820F01C002168086005E02068D4
:10229000006820F00E002168086094F85C0000F0EF
:1022A0001F0101208840C8F804000120606584F8FF
:1022B000350000BF002084F8340000BFE06C10B18E
:1022C0002046E16C884700BF65E500001000024031
:1022D000100402402DE9F041044600F0BBFD8046A9
:1022E00014B90120BDE8F081FE492068884249D038
:1022F000FC4918312068884244D0FA4930312068BE
:1023000088423FD0F7494831206888423AD0F549A1
:1023100060312068884235D0F2497831206888429F
:1023200030D0F0499031206888422BD0ED49A83157
:102330002068884226D0EC492068884222D0EA49A9
:102340001831206888421DD0E74930312068884222
:1023500018D0E54948312068884213D0E2496031FD
:10236000206888420ED0E04978312068884209D040
:10237000DD4990312068884204D0DB49A8312068CB
:10238000884201D1012000E00020002873D0606A5B
:1023900000B100BF022084F8350000BF002084F89F
:1023A000340000BFCF492068884249D0CD49183158
:1023B0002068884244D0CB493031206888423FD0E1
:1023C000C8494831206888423AD0C64960312068FF
:1023D000884235D0C34978312068884230D0C1491D
:1023E0009031206888422BD0BE49A83120688842AD
:1023F00026D0BD492068884222D0BB4918312068C8
:1024000088421DD0B84930312068884218D0B6497A
:1024100048312068884213D0B3496031206888422F
:102420000ED0B14978312068884209D0AE49903148
:102430002068884204D0AC49A8312068884206D17F
:102440002068006820F001002168086005E020682D
:10245000006820F00100216808600DE000F0FAFC3F
:10246000A0EB0800052807D920206065032084F828
:102470003500012036E76AE02068006800F00100BE
:102480000028EBD12068056898480540D4E902018E
:1024900008432169084361690843A1690843E16968
:1024A0000843216A08430543606A042803D1D4E93C
:1024B0000B01084305438E4800686FF30F00B0F12D
:1024C000005F1DD36068292802D360682E2811D9C7
:1024D00060683F2802D3606842280BD960684728AB
:1024E00002D36068482805D960684F2804D3606823
:1024F000522801D8012000E0002008B145F48015E1
:10250000206805602068456925F00705606A054375
:10251000606A04280DD1A06A0543E06A48B12046EC
:10252000FEF784FD28B140206065012084F8350065
:10253000D8E6206845612046FEF754FC064694F82C
:102540005C0000F01F013F208840B0609EE06949B8
:102550002068884222D067491431206888421DD003
:10256000644928312068884218D062493C3120688B
:10257000884213D05F495031206888420ED05D49AF
:1025800064312068884209D05A49783120688842ED
:1025900004D058498C312068884201D1012000E0E4
:1025A0000020E0B353492068884222D051491431B9
:1025B000206888421DD04F4928312068884218D0B1
:1025C0004C493C312068884213D04A495031206838
:1025D00088420ED0474964312068884209D0454975
:1025E00078312068884204D042498C312068884282
:1025F00001D1012000E0002000B100BF022084F8DA
:10260000350000BF002084F8340000BF2068056852
:1026100039480540A068402802D1102106E02EE08C
:10262000A068802801D1C10100E00021E06841EAF2
:10263000D001206941EAD001606941EAD001A06976
:1026400041EAD001E06941EAD001206A41EA101074
:1026500005432068056027492068401A1421B0FB13
:10266000F1F08000E0652046FEF7BCFB074694F8D9
:102670005C0000F01F0101208840786006E04020E7
:102680006065032084F8350001202BE61549206899
:1026900088427FD013491831206888427AD0114986
:1026A00030312068884275D00E4948312068884210
:1026B00070D00C496031206888426BD0094978316C
:1026C0002068884266D0074990312068884261D0EE
:1026D0000449A831206888425CD0034920688842B8
:1026E00058D00BE010000240100402403F8010FE62
:1026F0000010005C085402580F00FEFF3B491831DF
:102700002068884246D0394930312068884241D01B
:1027100036494831206888423CD0344960312068CD
:10272000884237D0314978312068884232D02F49E9
:102730009031206888422DD02C49A83120688842E9
:1027400028D02B492068884224D029491431206898
:1027500088421FD026492831206888421AD024494F
:102760003C312068884215D0214950312068884288
:1027700010D01F496431206888420BD01C49783141
:102780002068884206D01A498C312068884200E0CF
:1027900000E001D1012000E0002000B32046FEF758
:1027A00097FBA068802801D1002060602079216E0D
:1027B0000860D4E919104860606860B16068082852
:1027C00009D82046FEF7E6FB0020E16E0860D4E958
:1027D0001C10486003E00020E0662067606700206E
:1027E0006065012084F8350000207BE5100402407C
:1027F000085402582DE9F04104460D4616461F467E
:102800004FF0000814B90120BDE8F08100BF94F832
:102810003400012801D10220F6E7012084F83400B9
:1028200000BF94F8350001287ED1022084F83500DD
:1028300000206065E4492068884249D0E2491831A7
:102840002068884244D0E0493031206888423FD037
:10285000DD494831206888423AD0DB496031206840
:10286000884235D0D84978312068884230D0D6495E
:102870009031206888422BD0D349A8312068884203
:1028800026D0D2492068884222D0D0491831206809
:1028900088421DD0CD4930312068884218D0CB49BC
:1028A00048312068884213D0C84960312068884286
:1028B0000ED0C64978312068884209D0C34990318A
:1028C0002068884204D0C149A8312068884206D1D6
:1028D0002068006820F001002168086005E0206899
:1028E000006820F00100216808603B463246294616
:1028F0002046FEF7F3FBB449206888424BD0B2492A
:1029000018312068884246D0AF493031206888426B
:1029100041D0AD494831206888423CD0AA49603155
:102920002068884237D000E042E1A749783120682A
:10293000884230D0A4499031206888422BD0A249E7
:10294000A8312068884226D0A0492068884222D039
:102950009E491831206888421DD09C49303120683A
:10296000884218D0994948312068884213D0974945
:102970006031206888420ED09449783120688842BE
:1029800009D0924990312068884204D08F49A831FB
:102990002068884201D1012000E0002080B1206839
:1029A000006820F01E0040F0160021680860206CCE
:1029B000B0B12068006840F00800216808600FE0AE
:1029C0002068006820F00E0040F00A0021680860CE
:1029D000206C28B12068006840F00400216808607D
:1029E00079492068884270D0774918312068884238
:1029F0006BD0754930312068884266D072494831C1
:102A00002068884261D070496031206888425CD07B
:102A10006D4978312068884257D06B4990312068E1
:102A2000884252D06849A831206888424DD0674911
:102A30002068884249D0654918312068884244D0CE
:102A400062493031206888423FD06049483120686F
:102A500088423AD05D4960312068884235D05B4970
:102A600078312068884230D05849903120688842B7
:102A70002BD05649A8312068884226D05449206876
:102A8000884222D052491431206888421DD05049D2
:102A900028312068884218D04D493C31206888424E
:102AA00013D04B495031206888420ED048496431D8
:102AB0002068884209D0464978312068884204D08D
:102AC00043498C312068884201D1012000E0002078
:102AD00090B1206E006800F4803028B1206E00684C
:102AE00040F48070216E0860E06E28B1E06E0068EE
:102AF00040F48070E16E086033492068884249D014
:102B0000314918312068884244D02F49303120683B
:102B100088423FD02C494831206888423AD02A491F
:102B200060312068884235D0274978312068884252
:102B300030D025499031206888422BD02249A831D5
:102B40002068884226D021492068884222D01F4927
:102B50001831206888421DD01C49303120688842D5
:102B600018D01A4948312068884213D0174960317B
:102B7000206888420ED0154978312068884209D0F3
:102B8000124990312068884204D01049A831206849
:102B9000884206D12068006840F001002168086082
:102BA00010E02068006840F001002168086009E03A
:102BB0004FF40060606500BF002084F8340000BF5F
:102BC0004FF0010840461FE610000240100402408A
:102BD0000854025870B5044600F03CF906462546F4
:102BE000681C10B104480078054400BF00F032F9B9
:102BF000801BA842FAD370BD0801002010B504461E
:102C0000B4F5807F01D108F0ADFE102C06D1002173
:102C10000348FEF7D3FD0B2000F0BEF910BD000005
:102C20007406002010B5044604480068204020B116
:102C3000024804602046FFF7E1FF10BD88000058FD
:102C4000F8B502460B4600216F4DD7E001278F40B3
:102C50001E6806EA0704002C72D01E7906F00306EF
:102C6000012E04D01E7906F00306022E13D19068BF
:102C70004F000326BE40B0434F00DE68BE403043E5
:102C80009060506801268E40B0431E79C6F300164E
:102C90008E40304350601E7906F00306032E09D0A3
:102CA000D0684F000326BE40B0434F009E68BE4030
:102CB0003043D0601E7906F00306022E13D1CF08F0
:102CC00002F1200656F827004E07F70E0F26BE40E9
:102CD000B0434F07FF0E1E69BE403043CF0802F1DC
:102CE000200646F8270010684F000326BE40B04378
:102CF0001E7906F003064F00BE40304310605E6848
:102D000006F44036002E78D000BF404E366846F0BC
:102D100002063E4F3E603E46366806F002060096CA
:102D200000BF00BF3A4E8F0856F827008E07370FB6
:102D30000F26BE40B043374EB24202D100262EE0ED
:102D40005BE0354EB24201D1012628E0334EB2425B
:102D500001D1022623E0324EB24201D103261EE009
:102D6000304EB24201D1042619E02F4EB24201D1B9
:102D7000052614E02D4EB24201D106260FE02C4E5E
:102D8000B24201D107260AE02A4EB24201D10826FA
:102D900005E0294EB24201D1092600E00A268F073C
:102DA0003F0FBE4030431A4E8F0846F827004FF0C1
:102DB000B0463068A0435E6806F4801606B1204332
:102DC0004FF0B04630607068A0435E6806F40016AD
:102DD00006B120434FF0B04670606868A0435E685B
:102DE00006F4003606B1204368602868A0435E6898
:102DF00006F4803606B120432860491C1E68CE4088
:102E0000002E7FF423AFF8BD80000058F444025830
:102E10000804005800000258000402580008025834
:102E2000000C0258001002580014025800180258F2
:102E3000001C025800200258002402580AB1816187
:102E400001E00B048361704701480068000C704783
:102E50000010005C0148006870470000000100207D
:102E6000034800680349097808440149086070472D
:102E7000000100200801002010B5032000F0DEF85A
:102E800002F012FB10490968C1F303210F4A515C9B
:102E900001F01F0120FA01F40B48006800F00F0058
:102EA0001146085C00F01F0024FA00F00849086091
:102EB00008480460002000F00FF808B1012010BDA0
:102EC00000F036F80020FAE718440258C6BA0008A5
:102ED000100100200C01002070B504461148007854
:102EE00008B9012070BD0F4800784FF47A71B1FB2A
:102EF000F0F00D490968B1FBF0F5284603F01AFB24
:102F000008B10120EEE7102C07D200222146501E06
:102F100000F056F80548046001E00120E2E70020D7
:102F2000E0E70000080100200C010020040100205F
:102F300008B500BF0648006840F002000449086078
:102F40000846006800F00200009000BF00BF08BD06
:102F5000F444025810B501460846002817DB00F07B
:102F60001F0301229A400B4B440943F8242000BF61
:102F700000BF00BFBFF34F8F00BF00BF00BF00BF47
:102F800000BF00BFBFF36F8F00BF00BF00BF00BF17
:102F900010BD000080E100E00146084600280DDB7E
:102FA00000BF00BF00F01F0301229A4043099B00AD
:102FB00003F1E023C3F8002100BF00BF00BF70474A
:102FC0002DE9F05F80460D46164607F087FE07465E
:102FD00039462A46334601F00700C0F1070ABAF124
:102FE000040F02D94FF0040A01E0C0F1070AD146EC
:102FF00000F1040ABAF1070F02D24FF0000A01E013
:10300000A0F1030AD4464FF0010A0AFA09FAAAF11C
:10301000010A0AEA020A0AFA0CFA4FF0010B0BFA4B
:103020000CFBABF1010B0BEA030B4AEA0B04214644
:10303000404607F05BFEBDE8F09F000000BF00F0D7
:103040000702064B19684FF6FF031940044B0B4368
:1030500043EA0221014B196000BF70470CED00E00C
:103060000000FA0501460A680120C1F800050020A9
:1030700081F8F404906940F000609061506D024B5B
:103080001843506500207047030000107047024647
:103090001068416200207047F0B503461546186875
:1030A000446A21B944EA05401E68B06219E0186814
:1030B000806A04EB1044002208E0186800F5827072
:1030C00050F8220004EB1044501CC2B2481E90423B
:1030D000F3D844EA0547186800F582704E1E40F8A0
:1030E00026700020F0BD10B50446D4F8080506F09F
:1030F0003FF910BD70B504460D4605EBC50304F15C
:103100003C0101EB8301CA682946D4F8080506F0A2
:103110002AF870BD70B504460D4605EBC50304F5ED
:103120001F7101EB8301CA682946D4F8080506F02F
:103130009EF870BD10B50446D4F8080506F01BF9DA
:1031400010BD2DE9F04104460D4605F080008028B1
:1031500008D105F00F0000EBC00104F13C0000EBCA
:10316000810607E005F00F0000EBC00104F51F70B9
:1031700000EB81063146206807F044FB07463846DD
:10318000BDE8F08170B504460E4606F08000802848
:103190000AD106F00F0000EBC00104F13C0000EB87
:1031A00081050120687009E006F00F0000EBC00106
:1031B00004F51F7000EB81050020687006F00F0019
:1031C000287000BF94F8BC04012801D1022070BD12
:1031D000012084F8BC0400BF2946206806F0AEFE3A
:1031E00000BF002084F8BC0400BF00BFEFE770B54B
:1031F00004460E4606F00F006168884201D901209E
:1032000070BD06F0800080280AD106F00F0000EBA8
:10321000C00104F13C0000EB81050120687009E069
:1032200006F00F0000EBC00104F51F7000EB8105F4
:10323000002068700020A87006F00F00287000BF02
:1032400094F8BC04012801D10220D9E7012084F8B8
:10325000BC0400BF2946206807F066F800BF0020C4
:1032600084F8BC0400BF00BFCAE7024601F00F00AB
:1032700000EBC00302F51F7000EB8300406970474C
:103280002DE9F04705460E4690461F464FF00009CF
:1032900006F0800080280AD106F00F0000EBC00184
:1032A00005F13C0000EB81040120607009E006F0AC
:1032B0000F0000EBC00105F51F7000EB810400203A
:1032C000607006F00F002070C4F8088027716078E5
:1032D00008B120786083022F01D10020607100BF07
:1032E00095F8BC04012802D10220BDE8F087012036
:1032F00085F8BC0400BF2146286806F02BFD00BFFE
:10330000002085F8BC0400BF4846EEE72DE9F041F7
:1033100005460E461746984606F00F0000EBC00122
:1033200005F51F7000EB8104E760C4F810800020F1
:103330006061607006F00F002070E868012800D11D
:10334000E7612A7B2146286807F082F80020BDE863
:10335000F08170B504460D4605F00F0061688842A3
:1033600001D9012070BD05F0800080280AD105F048
:103370000F0000EBC00104F13C0000EB81060120CE
:10338000707007E005EBC50104F51F7000EB8106C6
:10339000002070700120B07005F00F00307000BF89
:1033A00094F8BC04012801D10220DBE7012084F855
:1033B000BC0400BF3146206806F0FDFF05F00F0099
:1033C00028B9217B04F2C442206806F075FF00BFD3
:1033D000002084F8BC0400BF00BFC3E72DE9F04122
:1033E00005460E461746984606F00F0000EBC00152
:1033F00005F13C0000EB8104E760C4F81080002078
:1034000060610120607006F00F002070E8680128FC
:1034100000D1E7612A7B2146286807F019F80020CF
:10342000BDE8F0812DE9FE4F0446D4F800B05E46B9
:10343000206807F0CEFA002874D1206807F008FB56
:1034400008B9BDE8FE8F40F608008059C0F30D2092
:10345000C4F8FC04206807F0FBFA00F00200022820
:1034600005D12068406900F00200216848612068A9
:1034700007F0EEFA00F01000102845D120688069AE
:1034800020F0100021688861DBF8209009F00F001F
:1034900000EBC00104F51F7000EB810AC9F3434043
:1034A00002281AD147F6F07009EA000030B3C9F3D8
:1034B0000A125846DAF80C1007F0CFFAC9F30A11CD
:1034C000DAF80C000844CAF80C00C9F30A11DAF85B
:1034D00014000844CAF8140010E0C9F34340062859
:1034E0000CD1082204F2C441584607F0B6FAC9F3D9
:1034F0000A11DAF814000844CAF814002068806938
:1035000040F0100021688861206807F0A1FA00F4FB
:103510000020B0F5002F7BD10025206807F068FA65
:10352000029072E003E3029800F00100002868D0E6
:10353000E9B2206807F07FFA804608F0010048B140
:10354000012106F5306000EB4510816029462046D8
:1035500003F05CFE08F00800082809D1082106F5F0
:10356000306000EB451081602946204603F01CFEC8
:1035700008F01000102805D1102106F5306000EB8E
:103580004510816008F00200022824D1DBF8140005
:1035900000F08000802807D140F60400805940F4F4
:1035A000806140F60400815105EBC50104F51F70F0
:1035B00000EB810A9AF80300012806D100208AF85E
:1035C0000300E9B2204600F0BDFA022106F53060A2
:1035D00000EB4510816008F02000202805D1202153
:1035E00006F5306000EB4510816008F40050B0F53E
:1035F000005F06D14FF4005106F5306000EB451036
:1036000081606D1C029840080290029800288AD1BF
:10361000206807F01DFA00F48020B0F5802F7DD1DE
:10362000206807F0DBF9029000259AE0029800F08C
:103630000100002873D0E9B2206807F0E3F9804662
:1036400008F00100F0B305F00F010120884001905F
:1036500040F634008159019821EA000040F6340117
:103660008851012106F5106000EB45108160E0688B
:10367000012824D105EBC50104F13C0000EB8100D9
:1036800005EBC502C16804F13C0000EB82008068D4
:10369000014405EBC50204F13C0000EB8200C1606F
:1036A0006DB905EBC50104F13C0000EB8100006938
:1036B00028B904F2C4420121206806F0FDFDE9B2F8
:1036C000204600E001E0FFF715FD08F0080008289B
:1036D00005D1082106F5106000EB4510816008F067
:1036E0001000102805D1102106F5106000EB4510E0
:1036F000816008F04000402805D1402106F51060A7
:1037000000EB4510816008F0020002281DD1294617
:10371000584607F01FF905EBC50101E025E01CE064
:1037200004F13C0000EB810A9AF80300012806D15D
:1037300000208AF80300E9B2204600F0FAF90221DD
:1037400006F5106000EB4510816008F080008028CD
:1037500003D12946204603F0FBFD6D1C029840086A
:103760000290029800287FF461AF206807F070F99A
:1037700000F00040B0F1004F1CD140F60400805929
:1037800020F0010140F60400815194F8F40401286E
:1037900007D1002084F8F40400212046FFF776FCCE
:1037A00002E0204600F004FB2068406900F0004081
:1037B00021684861206807F04BF900F40060B0F51B
:1037C000006F0ED140F60800805900F0010010B1E2
:1037D000204600F045FB2068406900F40060216845
:1037E0004861206807F034F900F00060B0F1006F24
:1037F00019D12068406900F000602168486194F8A0
:10380000F40468B9012084F8F4042068406DC0F322
:103810008300C4F8F80401212046FFF737FC02E0DA
:10382000204600F01DFB206807F012F900F48050DC
:10383000B0F5805F7ED140F60400805920F0010190
:1038400040F6040081511021206807F083F800271A
:1038500032E04FF67F3106F5106000EB47108160D3
:1038600006F5106000EB4710006820F4001106F523
:10387000106000EB471001604FF67F3106F53060B5
:1038800000EB4710816006F5306000EB47100068E0
:1038900020F4001106F5306000EB4710016006F5DA
:1038A000306000EB4710006840F0006106F53060C2
:1038B00000EB471001607F1C6068B842C9D840F631
:1038C0001C00805940F0011140F61C008151206B12
:1038D00070B1D6F8840840F00B01C6F8841840F6A1
:1038E0004400805940F00B0140F6440081510FE044
:1038F00040F61400805942F22B01084340F61401AF
:103900008851081F805940F00B014FF4016081512C
:10391000D6F8000820F4FE60C6F80008217B04F207
:10392000C442206806F0C8FC2068406900F480505A
:10393000216800E000E04861206807F089F800F4A1
:103940000050B0F5005F17D1206806F06BFA2068D0
:1039500007F02CF8206101F05DFD0090227C2068CA
:10396000009907F0FDF8204600F00AFA2068406947
:1039700000F4005021684861206807F069F800F001
:103980000800082808D1204600F019FA206840698C
:1039900000F0080021684861206807F059F800F03D
:1039A0008000802818D1DBF8180020F08000CBF8C8
:1039B000180001250DE005EBC50104F51F7000EBB3
:1039C0008100C078012803D1E9B22046FFF7B9FB96
:1039D0006D1C6068A842EED8206807F039F800F442
:1039E0008010B0F5801F2DD1012522E006F5106072
:1039F00000EB4510D0F8009005EBC50104F13C0048
:103A000000EB81000079012812D109F00040B0F1EB
:103A1000004F0DD1012105EBC50204F13C0000EB84
:103A20008200C170E8B240F080012046FFF789FBB8
:103A30006D1C6068A842D9D82068406900F48010E5
:103A400021684861206807F003F800F40010B0F521
:103A5000001F44D1012538E006F5306000EB451029
:103A6000D0F8009005EBC50104F51F7000EB810054
:103A70000079012828D109F00040B0F1004F23D18E
:103A800009F4803094F8FC1401F0010188421BD144
:103A9000012105EBC50204F51F7000EB8200C17027
:103AA000DBF8180040F08000CBF81800DBF81400B9
:103AB00000F0800040B940F60400805940F40071E5
:103AC00040F60400815103E06D1C6068A842C3D831
:103AD00000BF2068406900F4001021684861206838
:103AE00006F0B6FF00F08040B0F1804F08D12046CC
:103AF000FFF7F9FA2068406900F0804021684861CA
:103B0000206806F0A5FF00F0040004280FD120680B
:103B1000D0F8049009F00400042802D12046FFF7F1
:103B200009FB2068406840EA09002168486000BF3E
:103B300087E470B504460D462946D4F8080505F01B
:103B400089FC70BD70B504460D462946D4F80805B9
:103B500005F0A4FC70BD70B58AB0044614B901200C
:103B60000AB070BD266894F8BD0428B9002084F816
:103B7000BC04204600F0A8F8032084F8BD04F06BD4
:103B800000F4807008B90021E160206806F08CFB29
:103B9000282204F110016846FCF7F6FC94E80F00B7
:103BA00006F054F920B1022084F8BD040120D7E7C3
:103BB0000021206806F081FF002531E0012105EB9E
:103BC000C50204F13C0000EB8200417005EBC50129
:103BD00004F13C0000F8215005EBC50100EB810029
:103BE0004583002105EBC50204F13C0000EB820097
:103BF000017105EBC50204F13C0000EB820081601D
:103C000005EBC50204F13C0000EB8200C16005EB4E
:103C1000C50204F13C0000EB82000161681CC5B2E2
:103C20006068A842CAD800252AE0002105EBC50239
:103C300004F51F7000EB8200417005EBC50104F52F
:103C40001F7000F82150002105EBC50200EB820037
:103C5000017105EBC50204F51F7000EB8200816065
:103C600005EBC50204F51F7000EB8200C16005EB97
:103C7000C50204F51F7000EB82000161681CC5B22B
:103C80006068A842D1D8282204F110016846FCF7E8
:103C90007BFC94E80F0006F01BFA20B1022084F8A8
:103CA000BD0401205CE7002084F83800012084F87E
:103CB000BD04606A012802D12046FFF7D3F92068CD
:103CC00006F0F4F900204BE710B5B8B00446142113
:103CD00032A8FCF7ADFCC02102A8FCF7A9FC2549DD
:103CE0002068884243D14FF480210020CDE90210A2
:103CF0004FF44010249002A800F048FB08B1FDF7F3
:103D00003DFB00F0F7F800BF1B48006840F00100E1
:103D1000194908600846006800F00100019000BFE2
:103D200000BF4FF4C05032900220339000203490F6
:103D300035900A20369032A91048FEF781FF00BF67
:103D40000D480838006840F000600B4908390860E9
:103D50000846006800F00060019000BF00BF00222C
:103D600002216520FFF72CF96520FFF715F938B01F
:103D700010BD000000000840E04402580000025856
:103D800070B504460125206908B9002506E02069C0
:103D9000022801D1012501E0FDF7F0FA2946D4F807
:103DA000080505F024FCD4F8080505F0CBFB70BD30
:103DB00010B50446D4F8080505F0FAFB10BD10B59F
:103DC0000446D4F8080505F0FEFB10BD70B50446A6
:103DD0000D4600BF94F8BC04012801D1022070BD3B
:103DE000012084F8BC0400BF84F8385029462068BC
:103DF00006F097FE00BF002084F8BC0400BF00BF9F
:103E0000EDE710B5044604F2C441D4F8080505F006
:103E100005FC10BD70B50446256800BF94F8BC04CD
:103E2000012801D1022070BD012084F8BC0400BF2C
:103E3000E86B00F4807030B9A06A012803D1A86B48
:103E400040F48030A863206806F052FD206806F038
:103E50001BF900BF002084F8BC0400BF00BFE2E7EC
:103E600010B50446D4F8080505F035FC2068D0F8F4
:103E7000000E40F001002168C1F8000E206A28B150
:103E80000348006840F006000149086010BD0000CA
:103E900010ED00E070B5044615480068C0F38000DE
:103EA00048B91348006800F00700A04201D0012083
:103EB00070BD0020FCE70E48006820F0070020439A
:103EC0000B490860FEF7C6FF054607E0FEF7C2FF94
:103ED000401BB0F57A7F01D90120E9E70448083892
:103EE0000068C0F340300028F0D00020E0E7000078
:103EF0000C4802580348006840F08070014908608F
:103F0000704700000C48025810B501F083FA0549CB
:103F10000968C1F30211044A515C01F01F01C84055
:103F200010BD000020440258C6BA000870B5014612
:103F3000844D2D6805F00303824D2D68C5F30530CF
:103F4000804D2D1D2D68C5F300147E4D14352D6850
:103F5000C5F3CC0515FB04F501EE105AB8EE411A75
:103F6000F0EE410A00286FD023B1012B4ED0022B76
:103F70006BD16BE0734D283D2D68C5F340153DB303
:103F8000704D283D2D68C5F3C1066F4D25FA06F228
:103F900001EE102AF8EE411A01EE100AB8EE411AAD
:103FA00081EE812A9FED691AC0EE811A654D1035A8
:103FB0002D68C5F3080501EE105AB8EE411A31EE2E
:103FC000811AF7EE001A31EE211A22EE010A1CE0E6
:103FD00001EE100AB8EE411ADFED5D1A81EE812A7A
:103FE0009FED5A1AC0EE811A564D10352D68C5F353
:103FF000080501EE105AB8EE411A31EE811AF7EEBB
:10400000001A31EE211A22EE010A5BE001EE100ADD
:10401000B8EE411ADFED4F1A81EE812A9FED4B1A5F
:10402000C0EE811A474D10352D68C5F3080501EE25
:10403000105AB8EE411A31EE811AF7EE001A31EE3D
:10404000211A22EE010A3DE077E01DE001EE100AA0
:10405000B8EE411A9FED402AC2EE011A9FED3B1ABD
:1040600080EE812A374D10352D68C5F3080501EE25
:10407000105AB8EE411A32EE011AB7EE002A31EEAC
:10408000021A21EE810A1DE001EE100AB8EE411A73
:10409000DFED301A81EE812A9FED2C1AC0EE811AD5
:1040A000284D10352D68C5F3080501EE105AB8EEFD
:1040B000411A31EE811AF7EE001A31EE211A22EE82
:1040C000010A00BF00BF1F4D10352D68C5F34625FE
:1040D00001EE105AB8EE411AF7EE001A31EE211A2D
:1040E000C0EE011ABCEEE11A81ED001A154D103533
:1040F0002D68C5F3064501EE105AB8EE411AF7EEE9
:10410000001A31EE211AC0EE011ABCEEE11A81ED5F
:10411000011A0C4D10352D68C5F3066501EE105AD5
:10412000B8EE411AF7EE001A31EE211AC0EE011A6C
:10413000BCEEE11A81ED021A03E000250D604D602E
:104140008D6070BD284402580090D00300000046E6
:104150000024744C0024744A0024F44A70B50146CB
:10416000844D2D6805F00303824D2D68C5F305507D
:10417000804D2D1D2D68C5F300247E4D1C352D6806
:10418000C5F3CC0515FB04F501EE105AB8EE411A43
:10419000F0EE410A00286FD023B1012B4ED0022B44
:1041A0006BD16BE0734D283D2D68C5F340153DB3D1
:1041B000704D283D2D68C5F3C1066F4D25FA06F2F6
:1041C00001EE102AF8EE411A01EE100AB8EE411A7B
:1041D00081EE812A9FED691AC0EE811A654D18356E
:1041E0002D68C5F3080501EE105AB8EE411A31EEFC
:1041F000811AF7EE001A31EE211A22EE010A1CE0B4
:1042000001EE100AB8EE411ADFED5D1A81EE812A47
:104210009FED5A1AC0EE811A564D18352D68C5F318
:10422000080501EE105AB8EE411A31EE811AF7EE88
:10423000001A31EE211A22EE010A5BE001EE100AAB
:10424000B8EE411ADFED4F1A81EE812A9FED4B1A2D
:10425000C0EE811A474D18352D68C5F3080501EEEB
:10426000105AB8EE411A31EE811AF7EE001A31EE0B
:10427000211A22EE010A3DE077E01DE001EE100A6E
:10428000B8EE411A9FED402AC2EE011A9FED3B1A8B
:1042900080EE812A374D18352D68C5F3080501EEEB
:1042A000105AB8EE411A32EE011AB7EE002A31EE7A
:1042B000021A21EE810A1DE001EE100AB8EE411A41
:1042C000DFED301A81EE812A9FED2C1AC0EE811AA3
:1042D000284D18352D68C5F3080501EE105AB8EEC3
:1042E000411A31EE811AF7EE001A31EE211A22EE50
:1042F000010A00BF00BF1F4D18352D68C5F34625C4
:1043000001EE105AB8EE411AF7EE001A31EE211AFA
:10431000C0EE011ABCEEE11A81ED001A154D1835F8
:104320002D68C5F3064501EE105AB8EE411AF7EEB6
:10433000001A31EE211AC0EE011ABCEEE11A81ED2D
:10434000011A0C4D18352D68C5F3066501EE105A9B
:10435000B8EE411AF7EE001A31EE211AC0EE011A3A
:10436000BCEEE11A81ED021A03E000250D604D60FC
:104370008D6070BD284402580090D00300000046B4
:104380000024744C0024744A0024F44A2DE9F041BE
:1043900004460025A8464FF00062D4E90010114001
:1043A0000020134659404040014331D1A06E48B12E
:1043B000B0F5801F0DD0B0F5001F11D0B0F5401F33
:1043C00016D114E0F948006840F40030F74908605D
:1043D00010E0022104F1080003F016F8054609E098
:1043E000022104F1280003F0C1F8054602E001E0D3
:1043F000012500BF00BF55B9EC482430006820F407
:104400004010A16E0843E9492431086000E0A84645
:104410004FF48073D4E90010194000205940404007
:1044200001432ED1A06D05281BD2DFE800F0030A5E
:1044300011181900DD48006840F40030DB490860BD
:1044400011E0002104F1080002F0DEFF05460AE059
:10445000002104F1280003F089F8054603E002E09A
:1044600001E0012500BF00BF55B9D04824300068E5
:1044700020F00700A16D0843CC492431086000E01A
:10448000A8464FF40073D4E90010194000205940A9
:104490004040014334D1E06D802818D003DC40B1A6
:1044A00040281DD10CE0C02818D0B0F5807F17D16E
:1044B00015E0BE48006840F40030BC49086011E0D7
:1044C000002104F1080002F09FFF05460AE00021E8
:1044D00004F1280003F04AF8054603E002E001E099
:1044E000012500BF00BF55B9B0482430006820F452
:1044F000E070E16D0843AD492431086000E0A84652
:104500004FF48063D4E90010194000205940404026
:10451000014339D1D4F8A800B0F5800F1AD004DCDB
:1045200050B1B0F5001F1ED10DE0B0F5C00F18D08E
:10453000B0F5000F17D115E09C48006840F400303A
:104540009A49086011E0002104F1080002F05CFFC4
:1045500005460AE0002104F1280003F007F80546AB
:1045600003E002E001E0012500BF00BF5DB98F4814
:104570002C30006820F46000D4F8A81008438B4960
:104580002C31086000E0A8464FF40062D4E9001026
:1045900011400020134659404040014339D1D4F81E
:1045A000AC00B0F1007F1AD004DC50B1B0F1807FD4
:1045B0001ED10DE0B0F1407F18D0B0F1806F17D15F
:1045C00015E07A48006840F400307849086011E04E
:1045D000002104F1080002F017FF05460AE000215F
:1045E00004F1280002F0C2FF054603E002E001E00A
:1045F000012500BF00BF5DB96C482C30006820F079
:10460000E060D4F8AC10084368492C31086000E041
:10461000A8464FF00073D4E900011840002158402B
:104620004940084328D1E06CA8B1102804D02028C4
:1046300009D0302810D10DE05C48006840F400300B
:104640005A4908600AE0022104F1080002F0DCFE89
:10465000054603E002E001E0012500BF00BF55B9B7
:1046600052482030006820F03000E16C08434F4988
:104670002031086000E0A8464FF48053D4E90010D0
:104680001940002059404040014337D1206EB0F519
:10469000005F1AD004DC50B1B0F5805F1ED10DE090
:1046A000B0F5405F18D0B0F5804F17D115E03F4806
:1046B000006840F400303D49086011E0002104F139
:1046C000080002F0A1FE05460AE0002104F12800DE
:1046D00002F04CFF054603E002E001E0012500BFC7
:1046E00000BF55B931482430006820F4E040216E05
:1046F00008432E492431086000E0A8464FF40053D7
:10470000D4E900101940002059404040014335D100
:10471000606EB0F5403F1ED007DC68B1B0F5803F59
:104720000BD0B0F5003F19D10EE0B0F5802F13D0BB
:10473000B0F5A02F12D110E012E0012104F1080021
:1047400002F062FE05460BE0012104F1280002F0B0
:104750000DFF054604E003E002E001E0012500BF93
:1047600000BF55B911482430006820F4E020616E84
:1047700008430E492431086000E0A8464FF4804306
:10478000D4E900011840002158404940084337D17E
:10479000D4F8B000B0F1405F20D009DC78B1B0F1BE
:1047A000805F0DD0B0F1005F1BD110E02C440258A7
:1047B000B0F1804F13D0B0F1A04F12D110E012E051
:1047C000012104F1080002F01FFE05460BE0012163
:1047D00004F1280002F0CAFE054604E003E002E00E
:1047E00001E0012500BF00BF4DB9FE48006820F080
:1047F000E040D4F8B0100843FA49086000E0A84649
:104800004FF40042D4E900101140002013465940F3
:104810004040014329D1206FB0B1B0F1805F03D097
:10482000B0F1005F11D108E0EE482C38006840F488
:104830000030EC492C39086009E0012104F108003E
:1048400002F0E2FD054602E001E0012500BF00BFE5
:1048500055B9E4480838006820F04050216F0843FB
:10486000E0490839086000E0A8464FF08072D4E9BA
:1048700000101140002013465940404001432AD106
:10488000A06CB8B1012804D002280BD0032812D1A3
:104890000FE0D4482C38006840F40030D1492C395E
:1048A00008600AE0022104F1080002F0ADFD0546AF
:1048B00003E002E001E0012500BF00BF55B9C9488F
:1048C0000C38006820F00300A16C0843C5490C397E
:1048D000086000E0A8464FF48002D4E900011040CF
:1048E000002113465840494008437DD1BE48006826
:1048F00040F48070BC490860FEF7ACFA064606E05A
:10490000FEF7A8FA801B642801D9032505E0B64804
:10491000006800F480700028F2D000BF85BBB14869
:104920001830006800F44070B4F8B41001F440711D
:10493000884213D0AB481830006820F44077A9486B
:104940001830006840F48030A649183108600846E5
:10495000006820F48030086008460760D4F8B4008E
:10496000B0F5807F15D1FEF775FA064609E0FEF72F
:1049700071FA801B41F28831884202D9032507E091
:1049800038E0984818300068C0F340000028EED0A6
:1049900000BF55BB00BFB4F8B40000F44070B0F5E0
:1049A000407F0ED18F484838006820F47C518F4AF0
:1049B000D4F8B400104041EA10108A494839086020
:1049C00007E088484838006820F47C508549483919
:1049D0000860844818300068B4F8B410C1F30B01C3
:1049E00008438049183101E005E001E0086002E079
:1049F000A84600E0A8460122D4E9000110400021A9
:104A0000134658404940084330D1E06F18281AD067
:104A100005DC48B1082808D0102817D10CE0202860
:104A200012D0282812D110E012E0012104F1080070
:104A300002F0EAFC05460BE0012104F1280002F037
:104A400095FD054604E003E002E001E0012500BF1A
:104A500000BF55B96348001F006820F03800E16FBF
:104A600008436049091F086000E0A8460222D4E913
:104A7000000110400021134658404940084329D105
:104A8000A06F062816D2DFE800F003040B121314FF
:104A900012E0012104F1080002F0B6FC05460BE02B
:104AA000012104F1280002F061FD054604E003E065
:104AB00002E001E0012500BF00BF55B94948001FD1
:104AC000006820F00700A16F08434649091F0860ED
:104AD00000E0A8460423D4E9001019400020594002
:104AE0004040014329D1D4F89400062816D2DFE8CB
:104AF00000F003040B12131412E0012104F108006A
:104B000002F082FC05460BE0012104F1280002F0CE
:104B10002DFD054604E003E002E001E0012500BFB1
:104B200000BF4DB92F48006820F00700D4F894105A
:104B300008432C49086000E0A8462023D4E900017E
:104B40001840002158404940084337D1D4F890001C
:104B5000B0F1405F1ED007DC68B1B0F1805F0BD0D0
:104B6000B0F1005F19D10EE0B0F1804F13D0B0F179
:104B7000A04F12D110E012E0002104F1080002F071
:104B800043FC05460BE0022104F1280002F0EEFC94
:104B9000054604E003E002E001E0012500BF00BF9C
:104BA0005DB91048001F006820F0E040D4F8901074
:104BB00008430C49091F086000E0A8464023D4E9D7
:104BC0000010194000205940404001433CD1D4F826
:104BD0009C00B0F5406F25D00EDCA0B1B0F5806F21
:104BE00012D005E05844025800480258FFFCFF0F5D
:104BF000B0F5006F19D10EE0B0F5805F13D0B0F5BD
:104C0000A05F12D110E012E0002104F1080002F0D0
:104C1000FBFB05460BE0022104F1280002F0A6FC94
:104C2000054604E003E002E001E0012500BF00BF0B
:104C30004DB9FE48006820F4E050D4F89C100843B9
:104C4000FA49086000E0A8468023D4E90010194022
:104C5000002059404040014335D1D4F8A000B0F5C0
:104C6000C04F1ED007DC68B1B0F5005F0BD0B0F5C7
:104C7000804F19D10EE0B0F5004F13D0B0F5204FA2
:104C800012D110E012E0002104F1080002F0BCFB98
:104C900005460BE0022104F1280002F067FC0546FE
:104CA00004E003E002E001E0012500BF00BF4DB9D0
:104CB000DE48006820F46040D4F8A0100843DB49C7
:104CC000086000E0A8460823D4E90010194000203D
:104CD00059404040014317D1D4F88400B0F5805FBB
:104CE00007D1022104F1280002F040FC08B14FF086
:104CF0000108CE48001F006820F44050D4F884100A
:104D00000843CA49091F08601023D4E9001019405C
:104D1000002059404040014315D1D4F89800B0F527
:104D2000807F07D1022104F1280002F01FFC08B1A6
:104D30004FF00108BD48006820F44070D4F8981086
:104D40000843BA4908604FF40022D4E9000110403A
:104D50000021134658404940084327D1D4F8A40005
:104D600030B1B0F5803F0AD0B0F5003F0FD10DE073
:104D7000002104F1080002F047FB054609E002218A
:104D800004F1280002F0F2FB054602E001E00125F3
:104D900000BF00BF4DB9A548006820F44030D4F8EA
:104DA000A4100843A149086000E0A8464FF48023FE
:104DB000D4E90001184000215840494008432DD152
:104DC000D4F88800B0F5801F06D0B0F5001F0CD0D5
:104DD000B0F5401F11D10FE094482C38006840F422
:104DE000003092492C39086009E0012104F12800C3
:104DF00002F0BCFB054602E001E0012500BF00BF58
:104E00005DB98A48001F006820F44010D4F888106B
:104E100008438649091F086000E0A8464FF4803225
:104E2000D4E900011040002113465840494008438E
:104E300025D1206D18B1B0F5803F10D108E07B4836
:104E40002C38006840F4003078492C39086008E0BC
:104E5000022104F1080002F0D7FA054601E001251D
:104E600000BF00BF55B971480C38006820F480308D
:104E7000216D08436D490C39086000E0A8464FF0E9
:104E80000052D4E900101140002013465940404020
:104E9000014307D1022104F1280002F067FB08B1A9
:104EA0004FF001084FF40033D4E90001184000210D
:104EB00058404940084329D1D4F88000A0B1B0F54A
:104EC000807F06D0B0F5007F0CD0B0F5407F0CD1CC
:104ED00009E056482C38006840F4003053492C391A
:104EE000086004E003E002E001E0012500BF00BF2C
:104EF0005DB94E48001F006820F44070D4F880105F
:104F000008434A49091F086000E0A8464FF4801290
:104F1000D4E900101140002013465940404001439D
:104F200009D142480838006820F00040616F08430A
:104F30003E49083908604FF08052D4E90010114012
:104F4000002013465940404001430AD137484838B1
:104F5000006820F48040D4F8B81008433349483939
:104F600008604FF40012D4E90010114000201346ED
:104F700059404040014309D12C480838006820F0CE
:104F80008070E16E08432949083908604FF080427B
:104F9000D4E900101140002013465940404001431D
:104FA00011D100BF21484838006820F400401F4953
:104FB0004839086008460068D4F8BC1008431B490B
:104FC0004839086000BF4FF00042D4E9001011409A
:104FD0000020134659404040014309D113480C3882
:104FE000006820F04050616D084310490C3908609A
:104FF0004FF40002D4E9001011400020134659403C
:10500000404001430AD10948001F006820F44000D5
:10501000D4F88C1008430549091F086001230021BA
:105020006068184001224940504001E0584402584D
:10503000014306D104F1080002F0E6F9054605B186
:10504000A8460222002160681040494050400143B8
:1050500007D1012104F1080002F0D6F9054605B197
:10506000A8460423002061681940042240405140B2
:10507000084307D1022104F1080002F0C5F90546F2
:1050800005B1A8460823002160681840082249405D
:105090005040014306D104F1280002F067FA0546AA
:1050A00005B1A846102200216068104049405040D8
:1050B000014307D1012104F1280002F057FA054607
:1050C00005B1A846202200206168114040405140AF
:1050D000084307D1022104F1280002F047FA0546EF
:1050E00005B1A846B8F1000F02D10020BDE8F0815B
:1050F0000120FBE72DE9F04104460D4614B90120DB
:10510000BDE8F081BD48006800F00F00A8420ED253
:10511000BA48006820F00F002843B84908600846E4
:10512000006800F00F00A84201D00120E8E72078D5
:1051300000F0040004280ED1B1492069096801F08B
:105140007001884207D9AE48006820F070002169DC
:105150000843AB490860207800F00800082811D106
:10516000A749091D6069096801F07001884209D9E1
:10517000A348001D006820F0700061690843A04941
:10518000091D0860207800F01000102811D19C49FA
:10519000091DA069096801F4E061884209D99848AD
:1051A000001D006820F4E060A16908439449091DCE
:1051B0000860207800F02000202811D190490831A3
:1051C000E069096801F07001884209D98C4808300B
:1051D000006820F07000E1690843894908310860DF
:1051E000207800F0020002280ED18549E0680968A5
:1051F00001F00F01884207D98148006820F00F00B4
:10520000E16808437E490860207800F0010000282A
:1052100050D07B48006820F47060A168084378494A
:1052200008606068022807D1754818380068C0F324
:105230004040F8B9012063E76068032807D170484F
:1052400018380068C0F34060A0B9012058E76068D2
:10525000012807D16A4818380068C0F3002048B90F
:1052600001204DE7664818380068C0F3800008B98F
:10527000012045E762480838006820F007006168AF
:1052800008435F4908390860FDF7E4FD064608E079
:10529000FDF7E0FD801B41F28831884201D90320EF
:1052A0002EE757480838006800F038006168B0EB16
:1052B000C10FEDD1207800F0020002280ED1504934
:1052C000E068096801F00F01884207D24C48006885
:1052D00020F00F00E168084349490860474800682A
:1052E00000F00F00A8420ED94448006820F00F00DB
:1052F0002843424908600846006800F00F00A842B1
:1053000001D00120FCE6207800F0040004280ED132
:105310003B492069096801F07001884207D238488A
:10532000006820F070002169084335490860207842
:1053300000F00800082811D13149091D6069096889
:1053400001F07001884209D22D48001D006820F04C
:105350007000616908432A49091D0860207800F03F
:105360001000102811D12649091DA069096801F40F
:10537000E061884209D22248001D006820F4E06004
:10538000A16908431E49091D0860207800F020002B
:10539000202811D11A490831E069096801F070012B
:1053A000884209D216480830006820F07000E16990
:1053B000084313490831086000F076F8104909687D
:1053C000C1F303210F4A515C01F01F0120FA01F7DC
:1053D0000B48006800F00F001146085C00F01F0049
:1053E00027FA00F008490860084807600848006884
:1053F000FDF772FD8046404682E600000020005224
:1054000018440258C6BA0008100100200C01002000
:105410000401002010B500F047F80D490968C1F3F8
:1054200003210C4A515C01F01F0120FA01F40848E5
:10543000006800F00F001146085C00F01F0024FA1D
:1054400000F005490860054804600846006810BD82
:1054500018440258C6BA0008100100200C010020B0
:1054600000B5FFF7D7FF05490968C1F30211044AE7
:10547000515C01F01F01C84000BD00001C440258EF
:10548000C6BA000800B5FFF7C5FF05490968C1F3B2
:105490000221044A515C01F01F01C84000BD000018
:1054A0001C440258C6BA0008F0B5824E366806F0B1
:1054B000380636B1082E15D0102E15D0182E7DD1F5
:1054C00014E07C4E103E3668C6F3401646B1794E65
:1054D000103E3668C6F3C107774E26FA07F000E0A3
:1054E0007548E5E07548E3E07548E1E0714E18362F
:1054F000366806F003046F4E18363668C6F3051199
:105500006C4E1C36366806F001056A4E2436366845
:10551000C6F3CC0616FB05F601EE106AB8EE410A9A
:10552000002971D024B1012C50D0022C6DD16DE036
:10553000604E103E3668C6F340163EB35D4E103ED8
:105540003668C6F3C1075C4E26FA07F301EE103A3F
:10555000F8EE411A01EE101AB8EE411A81EE812AD6
:105560009FED581AC0EE011A524E20363668C6F327
:10557000080601EE106AB8EE411A31EE811AF7EE14
:10558000001A31EE211A62EE010A1EE001EE101A35
:10559000B8EE411ADFED4C1A81EE812A9FED491ACF
:1055A000C0EE011A434E20363668C6F3080601EEF7
:1055B000106AB8EE411A31EE811A00E076E0F7EE9B
:1055C000001A31EE211A62EE010A5BE001EE101AB8
:1055D000B8EE411A9FED3D2AC2EE011A9FED391A2D
:1055E00080EE012A334E20363668C6F3080601EEF7
:1055F000106AB8EE411A32EE011AB7EE002A31EE07
:10560000021A61EE810A3DE04EE01DE001EE101A43
:10561000B8EE411ADFED2E1A81EE812A9FED291A8C
:10562000C0EE011A234E20363668C6F3080601EE96
:10563000106AB8EE411A31EE811AF7EE001A31EE17
:10564000211A62EE010A1DE001EE101AB8EE411AAD
:105650009FED1E2AC2EE011A9FED1A1A80EE012A52
:10566000144E20363668C6F3080601EE106AB8EE0E
:10567000411A32EE011AB7EE002A31EE021A61EE3B
:10568000810A00BF00BF0B4E20363668C6F346269F
:10569000721C01EE102AB8EE411AC0EE811ABCEE5F
:1056A000E11A11EE100A00E0002001E0034800BFFB
:1056B00000BFF0BD104402580090D00300093D0027
:1056C00000127A00000000460024744C0024744A42
:1056D0000024F44A2DE9F047044614B90120BDE83E
:1056E000F087207800F00100002870D0FA480068A8
:1056F00000F03808F8481830D0F80090B8F1100FD2
:1057000006D0B8F1180F0FD109F0030002280BD111
:10571000F14810380068C0F3404000286AD0606843
:10572000002867D10120DAE700BF6068B0F5803F4C
:1057300008D1E9481038006840F48030E649103953
:1057400008602EE0606868B9E3481038006820F40B
:105750008030E149103908600846006820F4802054
:1057600008601EE06068B0F5A02F0DD1DA4810384F
:10577000006840F48020D849103908600846006865
:1057800040F4803008600CE0D3481038006820F402
:105790008030D149103908600846006820F4802024
:1057A000086000BF606898B1FDF754FB054606E04D
:1057B000FDF750FB401B642801D903208FE7C64842
:1057C00010380068C0F340400028F1D012E012E029
:1057D000FDF740FB054606E0FDF73CFB401B642857
:1057E00001D903207BE7BC4810380068C0F3404073
:1057F0000028F1D100BF207800F00200022874D107
:10580000B548006800F03808B3481830D0F8009068
:10581000B8F1000F05D0B8F1180F56D109F0030008
:10582000D0BBAD4810380068C0F3800018B1E06804
:1058300008B9012053E7A8481038006820F0190083
:10584000E1680843A44910390860FDF703FB0546E9
:1058500006E0FDF7FFFA401B022801D903203EE7CE
:105860009D4810380068C0F380000028F1D000BFC8
:10587000FDF7EAFA41F2030188421AD8206940286C
:105880000BD195480C38006820F47C3040F400308F
:1058900091490C39086017E017E08F480C38006810
:1058A00020F47C30216940EA01308B490C390860D2
:1058B0000AE089480C38006820F0FE40217C40EA6C
:1058C000016085490C39086066E0E06888B3824869
:1058D0001038006820F01900E16808437E4910394B
:1058E0000860FDF7B7FA054607E056E0FDF7B2FAA3
:1058F000401B022801D90320F1E6774810380068E0
:10590000C0F380000028F1D000BFFDF79DFA41F2FE
:10591000030188421AD8206940280BD16E480C3800
:10592000006820F47C3040F400306B490C3908608A
:1059300017E017E068480C38006820F47C302169D3
:1059400040EA013064490C3908600AE062480C38CA
:10595000006820F0FE40217C40EA01605E490C397D
:10596000086019E05C481038006820F001005A49CE
:1059700010390860FDF76EFA054606E0FDF76AFA91
:10598000401B022801D90320A9E6534810380068BB
:10599000C0F380000028F1D100BF207800F0100093
:1059A00010287CD14C48006800F038084A4818306C
:1059B000D0F80090B8F1080F06D0B8F1180F3DD11B
:1059C00009F00300012839D1434810380068C0F3BA
:1059D000002020B1E069802801D001207FE600BFCF
:1059E000FDF732FA41F2030188421AD8206A2028D2
:1059F0000AD139480C38006820F0F84040F0804067
:105A000035490C39086018E033480C38006820F03C
:105A1000F84094F8201040EA81602F490C39086062
:105A20000BE02D48001F006820F07C5094F82010F7
:105A300040EA01602849091F086066E0E06978B320
:105A400025481038006840F080002349103908606C
:105A5000FDF700FA054606E0FDF7FCF9401B0228B9
:105A600001D903203BE61C4810380068C0F3002031
:105A70000028F1D000BFFDF7E7F941F203018842A9
:105A80001CD8206A20280CD113480C38006820F05C
:105A9000F84040F0804010490C3908601AE035E0C9
:105AA0001CE00D480C38006820F0F84094F82010F5
:105AB00040EA816008490C3908600BE00648001F85
:105AC000006820F07C5094F8201040EA0160024900
:105AD000091F086019E0000010440258FA480068E5
